{
  "contractName": "DappToken",
  "abi": [
    {
      "constant": true,
      "inputs": [],
      "name": "totalSupply",
      "outputs": [
        {
          "name": "",
          "type": "uint256"
        }
      ],
      "payable": false,
      "stateMutability": "view",
      "type": "function"
    },
    {
      "constant": true,
      "inputs": [
        {
          "name": "",
          "type": "address"
        }
      ],
      "name": "balanceOf",
      "outputs": [
        {
          "name": "",
          "type": "uint256"
        }
      ],
      "payable": false,
      "stateMutability": "view",
      "type": "function"
    },
    {
      "inputs": [
        {
          "name": "_initialSupply",
          "type": "uint256"
        }
      ],
      "payable": false,
      "stateMutability": "nonpayable",
      "type": "constructor"
    }
  ],
  "bytecode": "0x60806040526040805190810160405280600681526020017f466c7572626f00000000000000000000000000000000000000000000000000008152506000908051906020019061004f9291906100d0565b5034801561005c57600080fd5b506040516020806102988339810180604052810190808051906020019092919050505080600260003373ffffffffffffffffffffffffffffffffffffffff1673ffffffffffffffffffffffffffffffffffffffff168152602001908152602001600020819055508060018190555050610175565b828054600181600116156101000203166002900490600052602060002090601f016020900481019282601f1061011157805160ff191683800117855561013f565b8280016001018555821561013f579182015b8281111561013e578251825591602001919060010190610123565b5b50905061014c9190610150565b5090565b61017291905b8082111561016e576000816000905550600101610156565b5090565b90565b610114806101846000396000f3006080604052600436106049576000357c0100000000000000000000000000000000000000000000000000000000900463ffffffff16806318160ddd14604e57806370a08231146076575b600080fd5b348015605957600080fd5b50606060ca565b6040518082815260200191505060405180910390f35b348015608157600080fd5b5060b4600480360381019080803573ffffffffffffffffffffffffffffffffffffffff16906020019092919050505060d0565b6040518082815260200191505060405180910390f35b60015481565b600260205280600052604060002060009150905054815600a165627a7a7230582011cf6f1fb2e427fb8fd6a2a7e2e67f414997a37a3c7be0dfe644f223bd265fff0029",
  "source": "pragma solidity >=0.4.2;\n\ncontract DappToken {\n    // Add a name \n    // Add a Symbol\n    string name = \"Flurbo\";\n\n    uint256 public totalSupply; // publicly visible state variable holds total fixed coin supply\n    mapping(address => uint256) public balanceOf;\n\n    // function totalSupply() constant returns (uint256 totalSupply) is already defined for us, by ERC 20 \n\n    constructor(uint256 _initialSupply) public {\n        balanceOf[msg.sender] = _initialSupply;\n        totalSupply = _initialSupply; \n        // allocating the initial supply, ie giving the 1 Mil token to someone\n    }\n}",
  "sourcePath": "/Users/madhav/Desktop/token_sale_2/contracts/DappToken.sol",
  "compiler": {
    "name": "solc",
    "version": "0.4.24+commit.e67f0147.Emscripten.clang"
  },
  "schemaVersion": "2.0.1",
  "updatedAt": "2018-12-10T07:53:26.208Z"
}