{
  "contractName": "DappToken",
  "abi": [
    {
      "constant": true,
      "inputs": [],
      "name": "totalSupply",
      "outputs": [
        {
          "name": "",
          "type": "uint256"
        }
      ],
      "payable": false,
      "stateMutability": "view",
      "type": "function"
    },
    {
      "inputs": [],
      "payable": false,
      "stateMutability": "nonpayable",
      "type": "constructor"
    }
  ],
  "bytecode": "0x608060405234801561001057600080fd5b506305f5e100600081905550609e8061002a6000396000f300608060405260043610603f576000357c0100000000000000000000000000000000000000000000000000000000900463ffffffff16806318160ddd146044575b600080fd5b348015604f57600080fd5b506056606c565b6040518082815260200191505060405180910390f35b600054815600a165627a7a723058207df3a5948f16146cb76e5d8a952dd4722fdeea9780f76c9900dc760e43f97acc0029",
  "source": "pragma solidity >=0.4.2;\n\ncontract DappToken {\n    // Needs a constructor\n    // Set number of tokens\n    // Read number of tokens\n\n    uint256 public totalSupply; // publicly visible state variable holds total fixed coin supply\n\n    // function totalSupply() constant returns (uint256 totalSupply) is already defined for us, by ERC 20 \n\n    constructor() public {\n        totalSupply = 100000000; // Set to 1 Mil tokens\n    }\n}",
  "sourcePath": "/Users/madhav/Desktop/token_sale/contracts/DappToken.sol",
  "compiler": {
    "name": "solc",
    "version": "0.4.24+commit.e67f0147.Emscripten.clang"
  },
  "schemaVersion": "2.0.1",
  "updatedAt": "2018-12-06T07:14:59.695Z"
}